:020000040000FA
:100000000C9462000C948A000C948A000C948A0070
:100010000C948A000C948A000C948A000C948A0038
:100020000C948A000C948A000C948A000C948A0028
:100030000C948A000C948A000C948A000C948A0018
:100040000C9474070C948A000C9442070C941C07BF
:100050000C948A000C948A000C948A000C948A00F8
:100060000C948A000C948A000000000025002800EF
:100070002B0000000000240027002A0000000000E0
:1000800023002600290004040404040404040202DA
:100090000202020203030303030301020408102007
:1000A0004080010204081020010204081020000012
:1000B0000008000201000003040700000000000027
:1000C0000000BE0711241FBECFEFD8E0DEBFCDBFBA
:1000D00022E0AAE8B1E001C01D92A534B207E1F721
:1000E00011E0A0E0B1E0EAE6FAE102C005900D926D
:1000F000AA38B107D9F710E0C2E6D0E004C02197D2
:10010000FE010E942A0BC136D107C9F70E94F507EC
:100110000C94330D0C9400008CBD9DBD0895AF92DE
:10012000BF92CF92DF92EF92FF920F931F93CF93E4
:10013000DF936C017B018B01040F151FEB015E0146
:10014000AE18BF08C017D10759F06991D601ED91DB
:10015000FC910190F081E02DC6010995892B79F77A
:10016000C501DF91CF911F910F91FF90EF90DF902C
:10017000CF90BF90AF900895FC01538D448D252FF3
:1001800030E0842F90E0821B930B541710F0CF9631
:10019000089501970895FC01918D828D981761F063
:1001A000A28DAE0FBF2FB11D5D968C91928D9F5F7A
:1001B0009F73928F90E008958FEF9FEF0895FC0159
:1001C000918D828D981731F0828DE80FF11D858D0C
:1001D00090E008958FEF9FEF0895FC01918D228D9F
:1001E000892F90E0805C9F4F821B91098F73992724
:1001F000089584E991E00E94ED0021E0892B09F443
:1002000020E0822F089580E090E0892B29F00E9461
:10021000F90081110C9400000895FC01A48DA80F31
:10022000B92FB11DA35ABF4F2C91848D90E0019638
:100230008F739927848FA689B7892C93A089B18958
:100240008C91837080648C93938D848D981306C0F9
:100250000288F389E02D80818F7D80830895EF925D
:10026000FF920F931F93CF93DF93EC0181E0888F70
:100270009B8D8C8D98131AC0E889F989808185FF40
:1002800015C09FB7F894EE89FF896083E889F989E2
:1002900080818370806480839FBF81E090E0DF91E4
:1002A000CF911F910F91FF90EF900895F62E0B8D37
:1002B00010E00F5F1F4F0F731127E02E8C8D8E11F2
:1002C0000CC00FB607FCFACFE889F989808185FF59
:1002D000F5CFCE010E940D01F1CFEB8DEC0FFD2F7C
:1002E000F11DE35AFF4FF0829FB7F8940B8FEA8914
:1002F000FB8980818062CFCFCF93DF93EC01888D23
:100300008823B9F0AA89BB89E889F9898C9185FD90
:1003100003C0808186FD0DC00FB607FCF7CF8C911E
:1003200085FFF2CF808185FFEDCFCE010E940D01C8
:10033000E9CFDF91CF910895833081F028F48130A7
:1003400099F08230A9F008958730A9F08830C9F07B
:100350008430B1F4809180008F7D03C08091800053
:100360008F7780938000089584B58F7784BD08953A
:1003700084B58F7DFBCF8091B0008F778093B000E4
:1003800008958091B0008F7DF9CF1F93CF93DF93B5
:10039000282F30E0F901E255FF4F8491F901E6562C
:1003A000FF4FD491F901EA57FF4FC491CC23A9F034
:1003B000162F81110E949C01EC2FF0E0EE0FFF1F21
:1003C000E859FF4FA591B4918FB7F894EC911111B2
:1003D00008C0D095DE23DC938FBFDF91CF911F91B2
:1003E0000895DE2BF8CFCF93DF9390E0FC01E65623
:1003F000FF4F24918A579F4FFC0184918823D1F0AD
:1004000090E0880F991FFC01EE58FF4FA591B49121
:10041000FC01E859FF4FC591D49161110EC09FB7FF
:10042000F8948C91E22FE0958E238C932881E2231F
:10043000E8839FBFDF91CF9108958FB7F894EC9137
:10044000E22BEC938FBFF6CF3FB7F89480918B01EE
:1004500090918C01A0918D01B0918E0126B5A89B41
:1004600005C02F3F19F00196A11DB11D3FBFBA2F46
:10047000A92F982F8827BC01CD01620F711D811D06
:10048000911D42E0660F771F881F991F4A95D1F78B
:1004900008958F929F92AF92BF92CF92DF92EF9288
:1004A000FF924B015C010E9424026B017C010E94BF
:1004B00024026C197D098E099F09683E73408105ED
:1004C0009105A8F321E0821A9108A108B10888EEED
:1004D000C80E83E0D81EE11CF11C81149104A10414
:1004E000B10429F7FF90EF90DF90CF90BF90AF90CD
:1004F0009F908F900895BC016E5F7F4FDC01ED915E
:10050000FC910190F081E02D40E0099591E081118E
:1005100090E0892F089508958EBD00000DB407FE68
:10052000FDCF8EB50895DF92EF92FF920F931F9348
:10053000CF93DF937C01062FD42E152F80E590E01A
:100540000E948C0060E0F70186850E94C50182E16F
:100550000E948C02CD2DD12F0C0F1D2F111DC01705
:10056000D10721F089910E948C02F9CF61E0F70157
:100570008685DF91CF911F910F91FF90EF90DF90D3
:100580000C94C5011F93CF93DF93EC01162F80E5E8
:1005900090E00E948C0060E08E850E94C501812F52
:1005A00080680E948C0280E00E948C02182F61E01B
:1005B0008E850E94C501812FDF91CF911F910895F3
:1005C0000F931F93CF93DF93EC01062F142F80E539
:1005D00090E00E948C0060E08E850E94C501802F13
:1005E0000E948C02812F0E948C0261E08E85DF9137
:1005F000CF911F910F910C94C501CF92DF92EF9292
:10060000FF920F931F93CF93DF93EC016B01F42EB6
:10061000890140E062E00E94E00244E06AE0CE012D
:100620000E94E00240E864E1CE010E94E002A601DF
:100630006F2DCE010E94930243E062E0CE010E9442
:10064000E0028FB7F894C0909001D0909101E090B3
:100650009201F09093018FBF89E5C80ED11CE11C77
:10066000F11C6AE0CE010E94C20282FF1BC040E082
:1006700062E0CE010E94E00264E4CE010E94C20268
:10068000F801808362E4CE010E94C202F8018183F6
:1006900080E0DF91CF911F910F91FF90EF90DF905D
:1006A000CF9008952FB7F894809190019091910187
:1006B000A0919201B09193012FBF8C159D05AE05BD
:1006C000BF0578F283E0E5CF2F923F924F925F9281
:1006D0006F927F928F929F92AF92CF92DF92EF9222
:1006E000FF920F931F93CF93DF9300D0CDB7DEB768
:1006F0004C012B01D42E390180E0E114F10411F0FA
:10070000F70180813C2C329490EF3922380E40E082
:1007100062E0C4010E94E0024FE768E0C4010E9469
:10072000E00240E864E1C4010E94E002A2016D2DF4
:10073000C4010E949302432D6AE1C4010E94E002B9
:100740004CE062E0C4010E94E0026AE1C4010E9440
:10075000C202482F40686AE1C4010E94E0028FB7DC
:10076000F894209090013090910140909201509027
:1007700093018FBFF4E22F0E311C411C511C68E025
:10078000C4010E94C202982F907309F0C0C080FF7C
:1007900015C083E00F900F90DF91CF911F910F91C3
:1007A000FF90EF90DF90CF90AF909F908F907F90D1
:1007B0006F905F904F903F902F9008952FB7F894CF
:1007C0008091900190919101A0919201B09193013B
:1007D0002FBF82159305A405B50588F2DACF611401
:1007E000710409F469C00115110509F465C064E1DB
:1007F000C4010E94C202382EF8018081831508F4DA
:1008000080C030823320E1F180E590E00E948C00CE
:1008100060E0F40186850E94C5013A9482E90E9455
:100820008C02CC20B1F08FEF90E09C0102C0220F2F
:10083000331FCA94E2F7690182E90E948C029C2D61
:100840009095F301208192238C21982B9083CC24C6
:10085000C39423014C0C511CC31440F482E90E9440
:100860008C02F20181932F01C394F6CF80E00E94A5
:100870008C02F201808361E0F40186850E94C5014B
:1008800068E1C4010E94C2028770E114F10411F012
:10089000F701808323FC37C061147104B1F10115A5
:1008A000110599F1AA2089F1F8014081413031F414
:1008B000843029F58FEF6ECF80E0ECCF4230F8F036
:1008C00081111DC042509E012F5F3F4FB301C401F3
:1008D0000E94FD0281115ECFF8019081690E711CAA
:1008E000F301329720819981291309C0F1E06F1A31
:1008F0007108F30120819A81291709F44BCF87E011
:1009000049CF84E047CF82E045CF80E043CF6CE021
:10091000C4010E94C202282E837109F460CF81E0D5
:1009200039CF8F929F92AF92CF92EF92FF920F9317
:100930001F93CF93DF9300D000D01F92CDB7DEB7C7
:100940004C0182E08D8340E064E2C4010E94E00239
:1009500040E066E2C4010E94E00246E268E4C401AD
:100960000E94E00286E28B838D818230D8F16CE1B7
:10097000C4010E94C202482F4F776CE1C4010E945B
:10098000E00287E08C83A12CC12CCE0104967C016F
:100990008E010B5F1F4F9E012F5F3F4F41E0BE0155
:1009A0006D5F7F4FC4010E946403982F811117C0AF
:1009B0008D818230B9F48C81811114C081E00F9057
:1009C0000F900F900F900F90DF91CF911F910F918B
:1009D000FF90EF90CF90AF909F908F90089581E01F
:1009E000923069F380E0EBCF2F923F924F925F926B
:1009F0006F927F928F929F92AF92BF92CF92DF922F
:100A0000EF92FF920F931F93CF93DF93CDB7DEB793
:100A10002D970FB6F894DEBF0FBECDBF16E041355F
:100A200008F04AC1342E3B014C016CE10E94C20225
:100A3000482F4F776CE1C4010E94E00283E989836B
:100A4000332029F081E0F3019081953008F480E0B3
:100A500022242394B12C9B2D990F990F990FD32CFD
:100A6000D91AD7FCD12C32E0882319F098E89B835F
:100A700033E021E09D2D977009F420E09D2D9595A0
:100A800095959595290FC9F094E0811193E0291768
:100A900008F4922FEB2DF0E03196E60DF71D232F91
:100AA0004191A1E0B0E0AC0FBD1FA20FB11D4C936E
:100AB0002F5F422F431B491798F3882311F0F8E06A
:100AC000DF0E8FE18D150CF082C090E79A838B8149
:100AD0009C8189279D8189279E8189278F839E01FB
:100AE000285F3F4F47E0BE016F5F7F4FC4010E9408
:100AF000FD02182F8111E0C01A86E3E0EB87DC8647
:100B0000CE0107962C0199E09D87CA844C2D429511
:100B1000407F4C0D6AE1C4010E94E002A12CCE018D
:100B20000A967C018E01055F1F4F92014D85BE0123
:100B30006F5F7F4FC4010E946403182F823009F059
:100B400065C06CE1C4010E94C20285FDB5C08F7111
:100B500009F480E2282F30E04D2DDD0C550B4217B3
:100B600053070CF09DC0D82EE82FE595E595E59547
:100B7000EF5F982F977081E009F480E0E80F81E043
:100B800090E08C0F9D1F8E0F911DFC0121503109AB
:100B90002770332781E090E002C0880F991F2A95C3
:100BA000E2F79C018081822B80838BCF85E989834A
:100BB000332031F081E0F3019081983008F04BCF81
:100BC00080E049CF87E9898326E0B22EF9CF9D2DB9
:100BD00097709A878D2D8595859585958E5F282FA1
:100BE0002295207F290F2A8321E0911101C020E066
:100BF000280F2D8744244394512C4C0E5D1E480E23
:100C0000511CE9E0E81BEB87DC867FCF811154C0E3
:100C100080E2D82E9C8590320CF457CF8B81883897
:100C200009F040C083E093E0EB2DF0E03196E60D53
:100C3000F71D980FA1E0B0E0AC0FBD1FA80FB11DCC
:100C40002C9121938F5F8913F5CFBB84E3E0BE1213
:100C50004DC08A8581114AC09E012D5F3F4F41E002
:100C6000B201C4010E94FD02182F811125C09B8191
:100C7000F201818198133CC09C818281981338C015
:100C8000808182FF12C02394F2E02F1609F48ECFE8
:100C900083E0281609F496CF91E0291609F4CECE08
:100CA00015E00AC082E094E0BFCFF3018387822D74
:100CB000880F820D8F5F8083812F2D960FB6F89459
:100CC000DEBF0FBECDBFDF91CF911F910F91FF907F
:100CD000EF90DF90CF90BF90AF909F908F907F90DC
:100CE0006F905F904F903F902F90089511E0E4CF68
:100CF00017E0E2CFFC0101900020E9F73197AF0146
:100D0000481B590BBC0184E991E00C948F00CF93F0
:100D1000DF930E947A06EC0182E291E00E947A065B
:100D20008C0F9D1FDF91CF910895FC0180819181EF
:100D3000009711F00C94CC0B08950F931F93CF9351
:100D4000DF93EC0188819981009759F02A813B81DA
:100D50002617370730F081E0DF91CF911F910F9177
:100D600008958B016F5F7F4F0E94550C009759F0DB
:100D7000998388831B830A832C813D81232B59F718
:100D8000FC011082E8CF80E0E7CFEF92FF920F9353
:100D90001F93CF93DF936115710541F480E0DF91DC
:100DA000CF911F910F91FF90EF900895411551053C
:100DB000B1F07B01EC010C811D81040F151FB801FE
:100DC0000E949D06882351F3288139818C819D8161
:100DD000B701820F931F0E942C0D1D830C8381E0AD
:100DE000DECFEF92FF920F931F93CF93DF93EC012F
:100DF0007B018A01BA010E949D06288139818111F7
:100E000014C02115310519F0C9010E94CC0B1982BB
:100E100018821D821C821B821A82CE01DF91CF9123
:100E20001F910F91FF90EF9008951D830C83B701E0
:100E3000C9010E942C0DF1CF1F920F920FB60F9295
:100E400011242F933F934F935F936F937F938F93CF
:100E50009F93AF93BF93EF93FF9384E991E00E9438
:100E60000D01FF91EF91BF91AF919F918F917F9174
:100E70006F915F914F913F912F910F900FBE0F9007
:100E80001F9018951F920F920FB60F9211242F9357
:100E90008F939F93EF93FF93E091A401F091A501AD
:100EA0008081E091AA01F091AB0182FD1BC090818D
:100EB0008091AD018F5F8F732091AE01821741F059
:100EC000E091AD01F0E0EC56FE4F958F8093AD01BF
:100ED000FF91EF919F918F912F910F900FBE0F90E7
:100EE0001F9018958081F4CF1F920F920FB60F922A
:100EF00011242F933F938F939F93AF93BF93809130
:100F0000900190919101A0919201B0919301309143
:100F10008A0123E0230F2D3758F50196A11DB11D3D
:100F200020938A018093900190939101A093920164
:100F3000B093930180918B0190918C01A0918D01D0
:100F4000B0918E010196A11DB11D80938B019093EC
:100F50008C01A0938D01B0938E01BF91AF919F91B1
:100F60008F913F912F910F900FBE0F901F9018956A
:100F700026E8230F0296A11DB11DD2CFE4E9F1E0CE
:100F80001382128288EE93E0A0E0B0E08483958320
:100F9000A683B7838AE091E09183808385EC90E01B
:100FA0009587848784EC90E09787868780EC90E033
:100FB000918B808B81EC90E0938B828B82EC90E024
:100FC000958B848B86EC90E0978B868B118E128E9E
:100FD000138E148EE1E3F2E08CE191E09183808343
:100FE0008AE0868789E087870895CF93DF93CDB71E
:100FF000DEB7AD970FB6F894DEBF0FBECDBF7894C5
:1010000084B5826084BD84B5816084BD85B582600D
:1010100085BD85B5816085BD80916E0081608093BE
:101020006E00109281008091810082608093810027
:101030008091810081608093810080918000816037
:10104000809380008091B10084608093B100809192
:10105000B00081608093B00080917A0084608093BA
:101060007A0080917A00826080937A0080917A0081
:10107000816080937A0080917A00806880937A0002
:101080001092C100E091A401F091A50182E080835B
:10109000E091A001F091A1011082E091A201F091F4
:1010A000A3018FEC80831092AC01E091A801F09134
:1010B000A90186E08083E091A601F091A7018081DB
:1010C00080618083E091A601F091A7018081886012
:1010D0008083E091A601F091A701808180688083E0
:1010E000E091A601F091A70180818F7D80831FB7D9
:1010F000F89480918F01811127C0E0E9F0E084919C
:10110000E4EAF0E09491E82FF0E0EE0FFF1FEE58D4
:10111000FF4FA591B491EC91E92321F461E08AE0BD
:101120000E94C50161E08AE00E94F3018CB58061F4
:101130008CBD8CB580648CBD61E08DE00E94F301B4
:1011400061E08BE00E94F30180918F018F5F8093BB
:101150008F011FBF61E080913F020E94F30161E0B7
:1011600080913F020E94C501809140028F3F09F4A7
:101170003EC160E00E94F3012091400230E0F9019D
:10118000E255FF4F8491F901E656FF4F0491F901B2
:10119000EA57FF4F149111111BC161E08091400289
:1011A0000E94F30160E0809140020E94C50183E04B
:1011B00090E00197F1F761E0809140020E94C50143
:1011C00062E370E080E090E00E94490240E064E267
:1011D00081E392E00E94E00240E066E281E392E077
:1011E0000E94E00246E268E481E392E00E94E002AD
:1011F00040E864E581E392E00E94E00249EA66E5A6
:1012000081E392E00E94E00243E068E581E392E03E
:101210000E94E00248EE6AE581E392E00E94E0026B
:1012200040E46AE281E392E00E94E0024DE362E280
:1012300081E392E00E94E00268E281E392E00E9492
:10124000C202982F9370933039F0482F436068E2C0
:1012500081E392E00E94E00261E085E00E94F301F8
:1012600088E291E00E94870682E291E00E947A067D
:1012700060E085E00E94C5018E010F5F1F4F30E0E6
:10128000C32E30E0D32E81E392E00E9491048823A4
:1012900009F456C181E392E00E947B02882309F49D
:1012A0004FC187E491E00E947A0619A618A61BA6F2
:1012B0001AA61DA61CA650E040E064E271E0CE0133
:1012C00088960E94F106B12C80913302B81608F07E
:1012D000A7C08B2D90E09C012F5C3D4F7901F90157
:1012E0008381803108F452C18AE591E00E947A0638
:1012F000F701438150E070E060E019A2FE01B19671
:10130000DB01CA018F709927AA27BB2724E07695B5
:101310006795579547952A95D1F78A300CF07EC08E
:10132000805D8293411551056105710549F730973C
:1013300019F0CF010E947A06F701838165E271E01E
:10134000803110F06AE571E01A8219821C821B82DA
:101350001E821D82FB0101900020E9F73197AF0149
:10136000461B570BC8010E94F1064D815E816981C1
:101370007A81CE0188960E94C506C8010E94950612
:10138000F70183811BA21AA21DA21CA21FA21EA2EA
:1013900040E1B80190E00E94C90AF80101900020E4
:1013A000E9F73197AF01401B510BB801CE0182968E
:1013B0000E94F1064EA15FA16AA17BA1CE01889691
:1013C0000E94C506CE0182960E949506B3947CCFFA
:1013D00081110E949C01E12FF0E0EE0FFF1FE45805
:1013E000FF4FA591B491EC910E2309F4D6CE4FE0B6
:1013F00062E081E392E00E94E00213E062E370E0C9
:1014000080E090E00E94490262E081E392E00E9465
:10141000C20284FFDBCE115089F7D8CE895C81CF20
:1014200082E291E00E947A0681E591E00E947A06CC
:10143000E8A4F9A4E114F10471F0F70181917F01AE
:10144000882349F0082E000C990B0E94120DF70119
:1014500031978083F2CF8CA49DA4AA24A394B12CAD
:101460008114910421F0540188248394912C1A82D0
:1014700019821C821B821E821D8250E040E064E2C1
:1014800071E0C8010E94F106ECA4FDA48E149F0433
:1014900018F5AE14BF0408F47501E8A5F9A5EE0D22
:1014A000FF1DB080108268A579A5680D791D6115B2
:1014B000710509F451C0FB0101900020E9F7319753
:1014C000AF01461B570BC8010E94F10688A599A5DC
:1014D000E80EF91EF701B0828D819E81892B51F0B3
:1014E0006CE571E089819A810E94230DFF24F394B9
:1014F000892B09F0F12CC8010E949506FF20C9F143
:1015000088E691E00E94870682E291E00E947A06D6
:1015100064EF71E080E090E00E94490261E085E0C4
:101520000E94C5016CEA7DE080E090E00E944902E3
:1015300060E085E00E94C501CE0188960E94950674
:10154000C114D10409F49FCE0E94F900882309F444
:1015500096CE0E94000093CE89819A81009711F067
:101560000E94CC0B1A8219821E821D821C821B8251
:10157000ADCF8AE791E00E94870660E085E00E9497
:10158000C50168EE73E080E090E0D0CF85E291E0A5
:10159000ADCEBB27FB015527AA27880F991FAA1F8D
:1015A000A41710F0A41B83955051B9F7A05DAA337E
:1015B00008F0A95DA193009779F7B111B193119249
:1015C000CB010C94E30ADC01FC01672F71917723B6
:1015D000E1F7329704C07C916D9370836291AE17EE
:1015E000BF07C8F308952F923F924F925F926F9278
:1015F0007F928F929F92AF92BF92CF92DF92EF92A3
:10160000FF920F931F93CF93DF93CDB7DEB7CA1B23
:10161000DB0B0FB6F894DEBF0FBECDBF09942A884E
:10162000398848885F846E847D848C849B84AA84F6
:10163000B984C884DF80EE80FD800C811B81AA8183
:10164000B981CE0FD11D0FB6F894DEBF0FBECDBF4E
:10165000ED010895EE0FFF1F0590F491E02D099420
:101660000F931F93CF93DF938230910510F482E0A4
:1016700090E0E0914302F091440230E020E0B0E0DD
:10168000A0E0309799F42115310509F44AC0281BD0
:10169000390B24303105D8F58A819B81611571059C
:1016A00089F1FB0193838283FE0111C04081518146
:1016B0000281138148175907E0F04817590799F438
:1016C000109761F012960C93129713961C93329612
:1016D000CF01DF91CF911F910F91089500934302A5
:1016E00010934402F4CF2115310551F042175307EE
:1016F00038F0A901DB019A01BD01DF01F801C1CF7A
:10170000EF01F9CF9093440280934302CDCFFE01C5
:10171000E20FF31F8193919322503109398328837B
:10172000D7CF2091410230914202232B41F42091E6
:101730000201309103013093420220934102209133
:101740000001309101012115310541F42DB73EB75B
:101750004091040150910501241B350BE091410299
:10176000F0914202E217F307A0F42E1B3F0B28175B
:10177000390778F0AC014E5F5F4F2417350748F00A
:101780004E0F5F1F50934202409341028193919309
:101790009FCFF0E0E0E09CCFCF93DF930097E9F09C
:1017A000FC01329713821282A0914302B09144024D
:1017B000ED0130E020E01097A1F420813181820F0B
:1017C000931F20914102309142022817390709F0F6
:1017D00061C0F0934202E0934102DF91CF910895FE
:1017E000EA01CE17DF07E8F54A815B819E014115CA
:1017F0005105B1F7E901FB83EA8349915991C40F7F
:10180000D51FEC17FD0761F4808191810296840F4A
:10181000951FE90199838883828193819B838A83C1
:10182000F0E0E0E012968D919C9113970097B9F546
:101830002D913C911197CD010296820F931F20911B
:101840004102309142022817390739F6309751F595
:101850001092440210924302B0934202A0934102BC
:10186000BCCFD383C28340815181840F951FC81799
:10187000D90761F44E5F5F4F88819981480F591FE6
:10188000518340838A819B81938382832115310513
:1018900009F0B0CFF0934402E09343029ECFFD01E4
:1018A000DC01C0CF13821282D7CFB0E0A0E0EBE51D
:1018B000FCE00C94F50A8C01009751F4CB010E94D6
:1018C000300B8C01C801CDB7DEB7E0E10C94110BF1
:1018D000FC01E60FF71F9C0122503109E217F307C4
:1018E00008F49DC0D901CD91DC911197C617D70797
:1018F00098F0C530D10530F3CE01049786179707CD
:1019000008F3C61BD70B2297C193D1936D937C9399
:10191000CF010E94CC0BD6CF5B01AC1ABD0A4C01A3
:101920008C0E9D1EA0914302B0914402512C412C7B
:10193000F12CE12C109731F58091410290914202F7
:101940008815990509F05CC04616570608F058C07E
:101950008091000190910101009741F48DB79EB7ED
:101960004091040150910501841B950BE817F9077C
:1019700008F055C0F0934202E0934102F9017183EF
:101980006083A0CF8D919C91119712966C901297C5
:1019900013967C901397A815B90559F56C0142E090
:1019A000C40ED11CCA14DB0420F1AC014A195B0936
:1019B000DA011296159780F0628273825183408318
:1019C000D9016D937C93E114F10471F0D701139662
:1019D000FC93EE93129776CF22968C0F9D1FF90100
:1019E00091838083F301EFCFF0934402E0934302AD
:1019F00069CF4816590608F42C017D01D3019ACF0E
:101A0000CB010E94300B7C01009749F0AE01B80178
:101A10000E941A0DC8010E94CC0B870153CF10E021
:101A200000E050CF9111089581568A5108F48052F8
:101A300085580895FB01DC0102C001900D924150D0
:101A40005040D8F70895FB01DC018D910190801979
:101A50000110D9F3990B0895FB01DC0101900D925F
:101A60000020E1F70895F894FFCF000045028000C0
:101A7000000000002F018F00BC007C01ED00CB00B6
:101A8000DF0000000000F40491047B020D0A002036
:101A9000300050757420796F757220636172642014
:101AA000746F20746865207265616465722E2E2ED5
:101AB0000055494420746167203A004D6573736195
:101AC0006765203A200039392034362038372038ED
:101AD0004400417574686F72697A6564206163635C
:101AE00065737300204163636573732064656E6979
:041AF0006564000029
:107E0000112484B714BE81FFF0D085E080938100F7
:107E100082E08093C00088E18093C10086E0809377
:107E2000C20080E18093C4008EE0C9D0259A86E02C
:107E300020E33CEF91E0309385002093840096BBD3
:107E4000B09BFECF1D9AA8958150A9F7CC24DD24C4
:107E500088248394B5E0AB2EA1E19A2EF3E0BF2EE7
:107E6000A2D0813461F49FD0082FAFD0023811F036
:107E7000013811F484E001C083E08DD089C08234E0
:107E800011F484E103C0853419F485E0A6D080C0E4
:107E9000853579F488D0E82EFF2485D0082F10E0AE
:107EA000102F00270E291F29000F111F8ED06801E7
:107EB0006FC0863521F484E090D080E0DECF843638
:107EC00009F040C070D06FD0082F6DD080E0C81688
:107ED00080E7D80618F4F601B7BEE895C0E0D1E017
:107EE00062D089930C17E1F7F0E0CF16F0E7DF06D8
:107EF00018F0F601B7BEE89568D007B600FCFDCFD4
:107F0000A601A0E0B1E02C9130E011968C91119780
:107F100090E0982F8827822B932B1296FA010C0160
:107F200087BEE89511244E5F5F4FF1E0A038BF0790
:107F300051F7F601A7BEE89507B600FCFDCF97BE46
:107F4000E89526C08437B1F42ED02DD0F82E2BD052
:107F50003CD0F601EF2C8F010F5F1F4F84911BD097
:107F6000EA94F801C1F70894C11CD11CFA94CF0C13
:107F7000D11C0EC0853739F428D08EE10CD085E9AC
:107F80000AD08FE07ACF813511F488E018D01DD067
:107F900080E101D065CF982F8091C00085FFFCCF94
:107FA0009093C60008958091C00087FFFCCF809118
:107FB000C00084FD01C0A8958091C6000895E0E648
:107FC000F0E098E1908380830895EDDF803219F02E
:107FD00088E0F5DFFFCF84E1DECF1F93182FE3DFCA
:107FE0001150E9F7F2DF1F91089580E0E8DFEE27F6
:047FF000FF270994CA
:027FFE00040479
:00000001FF
